:020000040800F2
:100000008006002091010008990100089B0100086A
:100010009D0100089F010008A101000800000000E8
:10002000000000000000000000000000A301000824
:10003000A501000800000000A7010008A9010008B0
:10004000AB010008AB010008AB010008AB010008E0
:10005000AB010008AB010008AB010008AB010008D0
:10006000AB010008AB010008AB010008510C00080F
:10007000AB010008AB010008AB010008AB010008B0
:10008000AB010008AB010008AB010008AB010008A0
:10009000AB010008AB010008AB010008AB01000890
:1000A000AB010008AB010008AB010008AB01000880
:1000B000AB010008AB010008AB010008AB01000870
:1000C000AB010008AB010008AB010008AB01000860
:1000D000AB010008AB010008AB010008AB01000850
:1000E000AB010008AB010008AB01000800F002F80A
:1000F00000F03FF80AA090E8000C82448344AAF183
:100100000107DA4501D100F034F8AFF2090EBAE880
:100110000F0013F0010F18BFFB1A43F0010318473B
:100120003C1A00004C1A0000002300240025002681
:10013000103A28BF78C1FBD8520728BF30C148BF4A
:100140000B607047662901F0BD84642900F054807B
:10015000752900F05180002070471FB500F098FB12
:1001600004000020002101F0C3FAE0601FBD10B5BB
:1001700010BD00F08DFC1146FFF7EFFF00F0CAFE46
:1001800000F0ABFC03B4FFF7F2FF03BC00F0EEFCA1
:100190000948804709480047FEE7FEE7FEE7FEE71B
:1001A000FEE7FEE7FEE7FEE7FEE7FEE70448054957
:1001B000054A064B70470000DD0D0008ED00000801
:1001C00080000020800600208002002080020020A5
:1001D0000FB41CB5074B06AA7B44694600900598EE
:1001E00000F03DFB0020694600F04CFB1CBC5DF8B4
:1001F00014FB0000A90600002DE9F041064600248A
:1002000010687529314616A510D0AFF3008000287C
:1002100002DA404213A507E031688A0701D512A52A
:1002200002E0490704D511A5012401E0AFF30080E5
:1002300000210A2206F1240709E0B0FBF2FCB0FB22
:10024000F2F302FB1C00303078541846491C002899
:10025000F3D123462A463046BDE8F04100F092B87B
:10026000000000002D0000002B0000002000000016
:100270002DE9F0474FF0000A89460446C0F820A057
:100280002046E1688847002876D0252806D0D4E9A2
:1002900001219047206A401C2062F1E7E168204676
:1002A00000258847C4F81CA006460027C4F818A0FB
:1002B0002A2E09D0304601F014FA38B304EB87082F
:1002C000303EC8F8186019E059F8041B204604EBCA
:1002D00087029161E1688847012F064618D1E069DD
:1002E000002820DA25F020051DE0D8F8180000EBE2
:1002F000800006EB40003038C8F818002046E1685E
:100300008847064601F0EDF90028EED1012F0AD00A
:100310002E2E08D12046E16888477F1C0646022F12
:1003200045F02005C4DBA069002803DA404245F00F
:100330000105A061E80701D025F01005B6B1A6F1CE
:100340004100192802D8203645F400654A46314656
:10035000204625604D46FFF7F5FE58B1012806D02E
:10036000ED1D25F0070000F1080989E704E005F11B
:10037000040985E730468AE7206ABDE8F0877047C0
:10038000704770472DE9F0470D469946924604465E
:1003900000F124080168880604D5E06921F0100105
:1003A000216000E00120A84201DD471B00E000279A
:1003B000A1697A1902EB0900081AA0612078C00629
:1003C00002D42046AFF30080002608E0D4E90121E2
:1003D0001AF806009047206A401C761C20624E45A1
:1003E000F4DB2078C0060AD52046AFF3008006E093
:1003F000D4E9012130209047206A401C2062381E39
:10040000A7F10107F4DC07E0D4E9012118F80500A1
:100410009047206A401C2062281EA5F10105F3DCEC
:100420002046AFF300802078000602D50220BDE808
:10043000F0870120FBE72DE9FF4F0C461E464FF0E9
:10044000FF378BB0D2E90001DDF860800A908A4660
:10045000C1F30A5505B93D46002108464FF000009A
:10046000BAF1000F00F4400005DA00EB80004FF411
:10047000400101EA50004FEA9059B9F1010F00DD47
:10048000B9460A9850EA4A000ED044F61050A5F238
:10049000FF3545432F14B8F1000F1ED07542291EB9
:1004A0001EDDC9F100021CE0B8F1010F4FF00000A1
:1004B00001D0302103E0F24305E02154401CB0425A
:1004C000FBDB30460022002121540B99C1F8088043
:1004D000C1E900200FB0BDE8F08FBD1B6D1CDEE749
:1004E0004A4600DA694206A800F05CFA06AB93E8D7
:1004F000070003AB83E8070050460A9900F015FD9A
:100500008DE80700A0F500501F3800900398002DDB
:100510000ADD42F21F014A460844002303A9039062
:10052000684600F07EFF09E0A0F500504A461F38FB
:10053000002303A90390684600F088FF8DE80700B8
:100540000004000C03D04FF0FF30410800E01046DB
:10055000B8F1000F03D00022009215461EE0751E70
:1005600005D400F099F9303262556D1EF9D5B346C5
:100570000122084302D000227F1C04E020783028AA
:1005800001D100227F1E002A099784D01DE0112D81
:1005900007DA00F081F9303262556D1C50EA010231
:1005A000F5D1084302D00098C8B10EE00021681EC2
:1005B00005E0235C625C63542254401E491C814266
:1005C000F7DBAB46A81B401E0990002004F80B0087
:1005D0000B98099AC0F80880C0E9002B7AE7112629
:1005E0004FF0000857E72DE9F04F88460446D21D2A
:1005F00022F0070191B0D1E90001CDE90A0101F033
:100600005CF802460B98C00F01D02D2007E020684F
:10061000810701D52B2002E0202101EAC000032A36
:10062000099001D0072A05DB03464146204600F029
:1006300079F90BE12078800601D5E06900E0062019
:10064000B8F1650F814606D0B8F1660F18D0B8F141
:10065000670F70D131E00020B9F1110F009001DB7C
:10066000112301E009F101030AAA01A90CA8FFF76F
:10067000E2FEDDE90C70002609F10105834647E042
:1006800001204B4600904FF000470AAA01A90CA890
:10069000FFF7D1FEDDE90DB00C995D46002610B9DB
:1006A00009F101000D18B9EB050003D4C0F1FF36C4
:1006B00009F10105A5EB09002BE0B9F1010F01DA01
:1006C0004FF001090020B9F1110F0090484601DDFB
:1006D000112300E003460AAA01A90CA8FFF7ABFE0C
:1006E000DDE90C704D4600268346207800070AD4C9
:1006F000AB4500DA5D4601A8012D04DD411911F872
:10070000011C302907D04F4502DA17F1040F04DA33
:10071000012082460FE06D1EEEE7002F02DCED1B8C
:100720003E4403E0781CA84200DD7D1CB81B00F1AC
:10073000010A4FF000472078000703D4AA4501DBE7
:100740004FF0FF3A0021B7F1004F0DF143088DF84B
:10075000431024D002202B23002F01DA7F422D23C7
:100760000A21021EA0F1010000DC5FB197FBF1FC41
:1007700097FBF1F201FB1C7C17460CF1300C08F8DA
:1007800001CDEEE7A8F1010003702188090501D52C
:10079000452100E06521A0F1010800F8011C09983D
:1007A0000FA9A1EB0807FF1D00B10120411901EBC2
:1007B000EA70A1693844081A401EA0612078C0067A
:1007C00002D42046AFF30080099828B1D4E9012172
:1007D0009047206A401C20622078C00622D520461F
:1007E000AFF300801EE0002E04DBB34502DD01A85C
:1007F000805D00E03020D4E901219047206A401C50
:100800002062761CAAF101005FEA000A0AD100F01A
:100810003FF8C0680168405CD4E901219047206A34
:10082000401C2062281EA5F10105DCDC07E0D4E9AC
:10083000012118F8010B9047206A401C2062381EE5
:10084000A7F10107F3DC2046AFF30080032011B0CD
:1008500041E6000001694A1C02610878704700B552
:100860008FB0CDE901310021059105497944CDE9E9
:10087000031011466846FFF7FBFC0FB000BD0000F7
:10088000E5FFFFFF0A6802F8010B0A6070470000ED
:10089000004870472000002030B5B0F10A0271F125
:1008A00000034FEA900E4EEA817EB0EB0E0061EB42
:1008B00091014FEA101E4EEA017E10EB0E0041EB53
:1008C00011114FEA102E4EEA016E10EB0E0041EBB3
:1008D00011214FEA104E4EEA014E10EB0E0041EB93
:1008E0001141401841F100014FEAD00040EA417047
:1008F0004FEAD1014FEA810444EA907410EB80057D
:1009000044EB01046D1944EB0404521BA3414FF066
:10091000000348BF0A3200D530BD401C41F1000140
:1009200030BD00002DE9F0411F4604460326016852
:10093000072A01F4006004DB08B116A505E016A53E
:1009400003E008B115A500E015A521F01000206016
:10095000A069C01EA0610FB1401EA0612046AFF388
:1009600000804FB1D4E9012138469047206A401CED
:100970002062C01C206206E0206AFAE7D4E9012167
:1009800015F8010B9047761EF8D22046AFF3008091
:10099000BDE8F0814E414E006E616E00494E46004A
:1009A000696E66002DE9F047814616468AB03548E3
:1009B00078440DC88DE80D0032487844801C03ACA3
:1009C0000DC884E80D0041F69B300844372190FBA8
:1009D000F1F290FBF1F5A5F1800501FB12041B3C3F
:1009E00002D56442012000E00020DFF898A0804694
:1009F0000027FA44AAF1BE0A0EE0E0070AD0324608
:100A0000684607EB470101230AEB810100F01EFD58
:100A10008DE8070064107F1C002CEED1194F7F4435
:100A2000AE3F19E0E80715D007EB04100DF1180AE6
:100A300090E80E008AE80E00C068F04201D19819D3
:100A400008903246012306A903A800F0FFFC03AB7F
:100A500083E807006D10641C002DE3D14FF0010303
:100A600032466946B8F1000F03A802D000F0D9FC65
:100A700001E000F0EBFCC9E90001C9F808200AB068
:100A8000BDE8F0879011000000487047000000208A
:100A90007546FFF7F9FFAE4605006946534620F05C
:100AA0000700854618B020B5FFF780FBBDE8204061
:100AB0004FF000064FF000074FF000084FF0000B1A
:100AC000AC46ACE8C009ACE8C009ACE8C009ACE889
:100AD000C00921F007018D46704710B50446AFF3F9
:100AE00000802046BDE81040FFF74CBB4FF0013CB2
:100AF00050F8042B51F8043B9A4221D1A2EB0C038D
:100B0000934313EACC1317D150F8042B51F8043B4C
:100B10009A4215D1A2EB0C03934313EACC130BD1E9
:100B200050F8042B51F8043B9A4209D1A2EB0C0374
:100B3000934313EACC13DBD04FF00000704700BFA3
:100B4000D01A01BAB1FA81F101F0180122FA01F0CC
:100B5000CB40DBB2C0B2C01AC1F120012CFA01F3C4
:100B6000D11A914311EAC311E6D170470149182007
:100B7000ABBEFEE7260002007047000010B541F250
:100B80000400C4F20200416942F2084441F40071D9
:100B900041610168C4F2010441F400410160206830
:100BA00040F001002060A06820F03800A060A0683C
:100BB00040F03800A060022000F0A2F9206840F068
:100BC00008002060206840F002002060E06A40F0E9
:100BD0000100E062206840F480702060206840F0EE
:100BE0000100206010BD000080B541F21400C4F285
:100BF0000200016841F001010160082042F24C410D
:100C0000C4F20200C4F20101816040F26001C2F24C
:100C10000001C16010214160016841F08001016064
:100C2000016841F480710160016841F480610160F4
:100C3000016841F020010160016841F0020101609A
:100C4000016841F00101016000F052F980BD00002F
:100C50002DE9F04F8DB00420C4F2020050F8041CBE
:100C6000890730D5016840F2600B43F233384FF208
:100C7000000941F002010024C2F2000BC4F2530843
:100C8000C4F27F590FF2440A05AD01603BF81460CD
:100C9000304600F037FE414600F048FE494600F07D
:100CA0006FFD00F041FD0F46029028465146224656
:100CB000334600940397FFF78BFA284600F00AF9B1
:100CC0000134102CE2D10DB0BDE8F08F4144435BFC
:100CD00025645D3D25752020566F6C746167655BEA
:100CE00025645D3D252E32660D0A000041F2180094
:100CF000C4F20200016841F00401016040F6000006
:100D0000C4F20100016821F0F00101600168016096
:100D10007047000080B500F001F880BD82B041F25C
:100D200004000021C4F202000191009150F8041C5B
:100D300041F4803140F8041C50F8041C01F40031E7
:100D40000091019901310191009919B90199B1F509
:100D5000A06FF1D150F8041C890354BF0021012178
:100D600000910099012936D142F20001C4F202013A
:100D70000A6842F010020A600A6822F007020A605C
:100D80000A6842F002020A600168016001680160BD
:100D9000016841F480610160016821F47C11016007
:100DA000016841F4E811016050F8041C41F08071C1
:100DB00040F8041C50F8041C8901FBD5016821F09F
:100DC00003010160016841F002010160016801F066
:100DD0000C010829FAD102B07047000080B541F239
:100DE0000000C4F202000168002241F0010101602C
:100DF0004168CFF6FF021140416001684FF6FF7273
:100E0000CFF6F66211400160016821F48021016093
:100E1000416821F4FE0141604FF41F018160FFF73A
:100E200079FF4EF60850CEF200004FF000610160ED
:100E300080BD000041F21C00C4F20200016841F0D4
:100E4000010101602820C4F20000472101804FF613
:100E5000FF7181804FF08040018841F001010180E5
:100E60007047000041F21800C4F20200016842F22B
:100E70000C0241F48041016040F60400C4F201001C
:100E8000016821F0F0010160016841F0B0010160EA
:100E9000016821F470610160816841F480618160C2
:100EA000016841F40061016043F60C00C4F20100E6
:100EB00041F64C5120F8041C018811430180704711
:100EC00043F60001C4F201010A885206FCD588806D
:100ED0007047000010B50178002908BF10BD441EFE
:100EE000C8B2FFF7EDFFA17801340029F8D110BD99
:100EF0004EF20010CEF200004FF400610160704726
:100F00002421C4F2000100220A8000BF0A88824224
:100F1000FCD37047FFF7EAFEFFF7A4FFFFF78AFF55
:100F2000FFF72CFEFFF760FEFEE75FEA400C08BF0C
:100F300091F0000F4FEA8C234FEAC12243EA51514E
:100F40004FEA1C5018BF00F5F0404FEA300018BFC0
:100F500041F000415FEA6C5C00F02980BCF1FF3F8A
:100F600008BF40F080407047130C06BF12044FF0DA
:100F7000100C4FF0000C130E04BF12020CF1080C01
:100F8000130F04BF12010CF1040C930F04BF920065
:100F90000CF1020CD30F04BF52000CF1010C1146EE
:100FA0004FF00002A0F11F00A0EB0C00704711F001
:100FB000004F08BF704731F000413FF4D5AF0B0C34
:100FC00006BF09044FF0100C4FF0000C0B0E04BFCD
:100FD00009020CF1080C0B0F04BF09010CF1040C01
:100FE0008B0F04BF89000CF1020CCB0F04BF49002A
:100FF0000CF1010CCCF1200322FA03F341EA0301C6
:1010000002FA0CF2A0EB0C0000F10100704723F093
:101010007F4720F07F4C80EA030000F00040ACEBFB
:10102000070303F57C5303F1FF032DE9804909B45D
:101030004FEA144324EA03484FEA154B25EA0B4EC6
:101040000FF2042606EB13273E7803FB0667C7F56D
:10105000000707FB06F64FEAD64606F102064FEAFE
:10106000543707FB066CCCF1005C4FEA1C472CEAB6
:10107000074C0CFB06F507FB06F404EB15464FEA9C
:10108000961649085FEA320234BF00204FF0004054
:101090004FEAD13706FB07FC4FEA1C4C0CFB0BF761
:1010A000D21B03FB0CF761EB07010CFB0EF7B0EB57
:1010B000074072EB17420CFB08F734BFA2EB074264
:1010C000B2EB074261EB17414FEA0C444FEA91073C
:1010D00006FB07FC4FEA1C4C0CFB0BF7B0EBC740C0
:1010E00072EB573203FB0CF734BFA2EBC742B2EBF3
:1010F000C74261EB57310CFB0EF7B0EBC70072EB48
:1011000057720CFB08F734BFA2EBC702B2EBC70261
:1011100061EB57714FEA816141EA92114FEA8262B5
:1011200042EA90124FEA806004EBCC04039F4FEA3E
:10113000D13706FB07FC4FEA1C4C0CFB0BF7D21B0C
:1011400003FB0CF761EB07010CFB0EF7B0EB07405C
:1011500072EB17420CFB08F734BFA2EB0742B2EB6D
:10116000074261EB17414FEA8C5504EB9C244FEA90
:10117000910706FB07FC4FEA1C4C0CFB0BF7B0EB8E
:10118000C74072EB573203FB0CF734BFA2EBC742E8
:10119000B2EBC74261EB57310CFB0EF7B0EBC70067
:1011A00072EB57720CFB08F734BFA2EBC702B2EB2D
:1011B000C70261EB57714FEA816141EA92114FEA30
:1011C000826242EA90124FEA806015EB4C2544F1AE
:1011D00000044FEAD13706FB07FC4FEA1C4C0CFB1E
:1011E0000BF7D21B03FB0CF761EB07010CFB0EF7AF
:1011F000B0EB074072EB17420CFB08F734BFA2EBD1
:101200000742B2EB074261EB17414FEA813141EAF5
:1012100092414FEA823242EA90424FEA80304FEAEE
:101220000C7615EB1C1544F1000448EA03434EEA22
:101230000B484FF0000EB2EB080C71EB030724BF14
:10124000624639464EEB0E0E4FF0000B001852412D
:1012500049414BEB0B0BB2EB080C71EB03077BF135
:10126000000B24BF624639464EEB0E0E4FF0000BCA
:101270000018524149414BEB0B0BB2EB080C71EBE0
:1012800003077BF1000B24BF624639464EEB0E0E7E
:1012900051EA020718BF46F0010616EB0E7655F12B
:1012A000000254F1000103D5BDE88901BDE80088C2
:1012B000BDE88901BDE80048B619524141EB010182
:1012C000A3F10103704780807F7E7D7C7B7A7978F3
:1012D000777676757473727171706F6E6E6D6C6CFB
:1012E0006B6A6A696868676666656464636362619D
:1012F0006160605F5F5E5E5D5D5C5C5B5B5A5A591E
:101300005958585757565655555554545353525289
:101310005251515050504F4F4F4E4E4D4D4D4C4CE1
:101320004C4B4B4B4A4A4A4949494848484747472A
:101330004746464645454544444444434343434267
:101340004242424141419C46002B30D477002BD091
:101350004FEA37071CB503B44FF010004FF01001EF
:10136000BAF1000F06D0BCF1000FDCBF40F008005E
:1013700040F008014FF000000FBCBDE810400BF139
:10138000010BBBF1010F08BF5FEA170722BF12F183
:10139000010211F101014FF0004143F1000300F09F
:1013A000004043EA00007047F9D35708D0E746EA07
:1013B00006464FEA164613F1400F1FDD13F1200FCA
:1013C000DFBF16430A46002120335B42BED0C3F183
:1013D000200746EA06464FEA164602FA07F746EAAB
:1013E000070622FA03F2C3F1200701FA07F742EADF
:1013F000070221FA03F14FF00003A7E746EA0206CD
:1014000046EA06464FEA164646EA0106BCBF46EAE9
:101410000646360C4FF000034FF000024FF000017B
:1014200094E72DE9804C70B49A46934691E83800D1
:1014300007C831EA400C48BF34EA430C03D5FFF734
:10144000E6FDFFF780FFF0BCBDE8008C2DE9804C85
:1014500070B49A46934691E8380007C810F0804F60
:1014600008BF13F0804F03D100F005F8FFF76BFFC2
:10147000F0BCBDE8008C20F07F4723F07F4C80EA71
:10148000030000F0004007EB0C03A3F57C53A3F12D
:10149000FE0392F0000F00F0B38095F0000F00F013
:1014A00077802DE901494FEA114021EA00484FEACF
:1014B000144624EA064700FB06FC08FB06F607FB79
:1014C00008F818EB06484CEB164C00FB07F718EB36
:1014D00007484CEB17404FEA124B22EA0B4E4FEAFB
:1014E000154625EA06470BFB06FC0EFB06F607FB36
:1014F0000EFE1EEB064E4CEB164C0BFB07F71EEBDD
:10150000074E4CEB174B18EB0B0840F1000018EBA3
:101510000E0B58EB000840F100008F1A4FF000014D
:101520004FF000063CBFC943661B14BFB5EB040C6B
:1015300000213CBFC943F61B4FEA174427EA044584
:101540004FEA1C472CEA074C04FB076205FB07F730
:101550000CFB05F616EB074642EB174204FB0CFCAE
:1015600016EB0C4642EB1C421BEB060658EB020244
:1015700041414EEA8E0E46EA9E0601D5BDE801893C
:10158000B619524141EB0101A3F10103BDE8018904
:101590004FEA144524EA05464FEA114721EA074C71
:1015A00005FB07F406FB07F70CFB06F111EB0741FF
:1015B00044EB174405FB0CFC11EB0C4144EB1C44C1
:1015C0004FEA124722EA074C05FB07F206FB07F732
:1015D0000CFB06F616EB074642EB174205FB0CFC2C
:1015E00016EB0C4642EB1C456A1854F1000148BF4B
:1015F0007047B619524141EB0101A3F10103704755
:1016000095F0000F37D04FEA114221EA02464FEA27
:10161000144724EA074C02FB07F106FB07F70CFB13
:1016200006F414EB074441EB174102FB0CFC14EBEE
:101630000C4441EB1C414FEA154725EA074C02FBDD
:1016400007F506FB07F70CFB06F616EB074645EB1E
:10165000174502FB0CFC16EB0C4645EB1C4212191D
:1016600051F1000148BF7047B619524141EB0101E9
:10167000A3F1010370474FEA144524EA05464FEAF7
:10168000114721EA074C05FB07F106FB07F70CFBA6
:1016900006F212EB074241EB174105FB0CFC12EB83
:1016A0000C4251EB1C414FF0000648BF70479218A6
:1016B00041EB0101A3F101037047490050EAC12049
:1016C00018BF04204A0D18BF40F0010040F2FF721D
:1016D000B2EB515F08BF40F00200012808BF0520AF
:1016E000704730380A2801D2012070470020704727
:1016F00010B500290AD00878002807D0054878449A
:10170000FFF7F4F9002801D0002010BD024878440A
:1017100010BD00006E040000660400000808A0F57B
:1017200000114FEA3101704743004FEAD30C4FEAF2
:101730003C0C43401FBF40070CF1605113F0FE4FBB
:1017400070471CF0006F03D10CF00041002070477F
:101750000CF0004343EA507040EACC0010B500F0B2
:1017600066F900BF000000924FEA0001FFF7D6BF04
:101770004FF00041A1F500214FF00000704700003C
:101780004FF47F0C1CEAD0121EBF1CEAD11392EA60
:101790000C0F93EA0C0F00F0858090EA010F48BF10
:1017A00042F4807240F4000C41F400002CF07F41C0
:1017B00020F07F4000B5A2EB030281420FF2081C2B
:1017C000ACEB504E9EF800E0C0F100004FEA4E0E28
:1017D00000FB0EFC38BF49004FEA2C1C0CFB0EF33B
:1017E0004FEACE1E0EEB635E4FEA112C0EFB0CFC93
:1017F0004FEAC1214FEA1C5300FB031102F5FA0224
:101800004FEA112C0EFB0CFC4FEA01314FEADC4C85
:1018100000FB0C1142EB2242C14228BF09184CEBDD
:1018200003335DF804EB10EB410143EBC250B2F51A
:101830007C0F38BF704729D512F0F00F1CBF00F1A4
:10184000C04000F000407047008182838485868715
:1018500088898B8C8D8E8F919293959697999A9C6F
:101860009D9FA0A2A3A5A7A8AAACAEB0B2B3B5B7DE
:10187000B9BCBEC0C2C5C7C9CCCED1D4D7D9DCDFB4
:10188000E2E6E9ECF0F3F7FAFE0000004FEA400C64
:101890000CF1807CBCF17E4F28BF7047B0F1C04096
:1018A00000F00BB90CEAD11390EA010F48BF42F4E3
:1018B0008072624538BF634507D213F47F0F16D09C
:1018C00080EA010000F00040704710B500F0AFF86A
:1018D000097EFC3E00F005B880EA010000F00040FF
:1018E000704780EA010000F0004000F0E6B812F412
:1018F0007F0F04BF0248704780EA010000F0DDB8A6
:101900000000C07FB0FA80F310FA03F2C3F19D0328
:101910000AD0D90501EB1220530638BF704700F1F9
:10192000010008BF20F00100704700004FF47F0C59
:101930001CEAD0121EBF1CEAD11392EA0C0F93EAE4
:101940000C0F00F0478090EA010F48BF42F480720C
:101950004FF0004C4CEA00204CEA012102EB03025C
:10196000A0FB0113A2F50002002918BF43F00103F8
:101970005B0028BF4FEA330342EB22425FEA132C9D
:101980004CEBC2502EBFBCEB436FB2F57C0F7047DF
:101990004FEA036CBCF1004F08BF20F00100B2F524
:1019A0007C0F38BF70470BD582F0FF0212F5803FE5
:1019B000C8BF704700F1C040D8BF00F0004070477A
:1019C00000F5000C5FEA4C0C48BF7047B0F1C04016
:1019D00000F073B80CEAD11390EA010F48BF42F44B
:1019E0008072624538BF634504D280EA010000F08E
:1019F0000040704710B500F01AF800BF8900013EA2
:101A000000F007B800F009B85FEA410C5FEA1C6C0F
:101A100008D080EA010000F050B85FEA400C5FEAAD
:101A20001C6CF6D14FF00040A0F5800070470EF11D
:101A3000020E2EF0030E5EF8044B244204D44FEA4B
:101A40004102B2F17F4F11D84FEA4003B3F17F4F0B
:101A50000CD80ED14FEAD07C0CEB4C0C0CF1020CE4
:101A6000B2F17F4F08BF4CEBD17C04E04FF0080C83
:101A700001E04FEAD17C0CEB4C0324FA03F404F0B0
:101A80000704B4F1040C06D20EEB840CBDE8104040
:101A90004CF0010C6047DFE80CF0070802024FF041
:101AA0000040A0F5800010BD0846420018BFD2F1EA
:101AB000807288BF00F0004010BDFF2141EAD05085
:101AC000C0057047FEF78FBD02400000000000A077
:101AD0000000000005400000000000C800000000F9
:101AE0000C4000000000409C000000001940000075
:101AF0000020BCBE0000000034400000BFC91B8EA7
:101B000000000004B5400000504BCFD06607E2CF84
:101B1000010000006C4100003E8251AADFEEA734B4
:101B200001000000D9420000DCB5A0E23A301F9766
:101B3000FFFFFFFFB4450000FD25A0C8E9A3C14F8A
:101B4000FFFFFFFFFF3F00000000008000000000DB
:101B5000FF3F00000000008000000000881B00081C
:101B60000000002080060000280100081C00000082
:101B700043000000F8FFFFFF0C0000000E00000013
:081B80000F0000002E00000020
:04000005080001915D
:00000001FF
